:060000000A128A11492FCB
:100E92000A128A11A8270A128A11C327B0010A125C
:100EA2008A11C9270A128A11CC27031383128C1EB6
:100EB200562F031383121A08A00020088000031380
:100EC2008312000899000008A0002E3020020319A6
:100ED200762F840AF00B562F6E2F84030008A00091
:100EE2002E3020020319762F492F0A128A11C327A6
:100EF2000008A0002E30200203198D2F0008A00048
:100F02005A302002031C8A2F862F840AF00B792F75
:100F12008D2F20308007862F0A128A11C9270A12C4
:100F22008A11DD270A128A11C327031383120C1EAA
:100F3200962F03138312000899000008A0002E3098
:100F420020020319492F840AF00B962F492FA00182
:100F52000313831608100313831208100313831656
:100F620024309800031383129030980003138316E1
:100F720071308F000317831687010313831619300C
:100F820099000800F0010830F000303084000800B9
:100F92000A30F82708005330F8274330F827523038
:100FA200F8274930F8275630F8274930F8273A30E1
:100FB200F8270A30F82708004330F8274F30F8277F
:100FC2004E30F8275630F8274530F8275230F827A8
:100FD2005330F8274930F8274F30F8274E30F8279A
:100FE2004530F8273A30F8270A30F827080003136B
:0E0FF20083120C1EF82F0313831299000800BF
:04400E00F42CFF3E51
:00000001FF
